{
  "_format": "hh-sol-artifact-1",
  "contractName": "FlipkartCoin",
  "sourceName": "contracts/FlipkartCoin.sol",
  "abi": [
    {
      "inputs": [],
      "stateMutability": "nonpayable",
      "type": "constructor"
    },
    {
      "anonymous": false,
      "inputs": [
        {
          "indexed": true,
          "internalType": "address",
          "name": "owner",
          "type": "address"
        },
        {
          "indexed": true,
          "internalType": "address",
          "name": "spender",
          "type": "address"
        },
        {
          "indexed": false,
          "internalType": "uint256",
          "name": "value",
          "type": "uint256"
        }
      ],
      "name": "Approval",
      "type": "event"
    },
    {
      "anonymous": false,
      "inputs": [
        {
          "indexed": true,
          "internalType": "address",
          "name": "from",
          "type": "address"
        },
        {
          "indexed": true,
          "internalType": "address",
          "name": "to",
          "type": "address"
        },
        {
          "indexed": false,
          "internalType": "uint256",
          "name": "value",
          "type": "uint256"
        }
      ],
      "name": "Transfer",
      "type": "event"
    },
    {
      "stateMutability": "payable",
      "type": "fallback"
    },
    {
      "inputs": [
        {
          "internalType": "address",
          "name": "owner",
          "type": "address"
        },
        {
          "internalType": "address",
          "name": "spender",
          "type": "address"
        }
      ],
      "name": "allowance",
      "outputs": [
        {
          "internalType": "uint256",
          "name": "",
          "type": "uint256"
        }
      ],
      "stateMutability": "view",
      "type": "function"
    },
    {
      "inputs": [
        {
          "internalType": "address",
          "name": "spender",
          "type": "address"
        },
        {
          "internalType": "uint256",
          "name": "amount",
          "type": "uint256"
        }
      ],
      "name": "approve",
      "outputs": [
        {
          "internalType": "bool",
          "name": "",
          "type": "bool"
        }
      ],
      "stateMutability": "nonpayable",
      "type": "function"
    },
    {
      "inputs": [
        {
          "internalType": "address",
          "name": "account",
          "type": "address"
        }
      ],
      "name": "balanceOf",
      "outputs": [
        {
          "internalType": "uint256",
          "name": "",
          "type": "uint256"
        }
      ],
      "stateMutability": "view",
      "type": "function"
    },
    {
      "inputs": [],
      "name": "decimals",
      "outputs": [
        {
          "internalType": "uint8",
          "name": "",
          "type": "uint8"
        }
      ],
      "stateMutability": "view",
      "type": "function"
    },
    {
      "inputs": [
        {
          "internalType": "address",
          "name": "spender",
          "type": "address"
        },
        {
          "internalType": "uint256",
          "name": "subtractedValue",
          "type": "uint256"
        }
      ],
      "name": "decreaseAllowance",
      "outputs": [
        {
          "internalType": "bool",
          "name": "",
          "type": "bool"
        }
      ],
      "stateMutability": "nonpayable",
      "type": "function"
    },
    {
      "inputs": [
        {
          "internalType": "address",
          "name": "spender",
          "type": "address"
        },
        {
          "internalType": "uint256",
          "name": "addedValue",
          "type": "uint256"
        }
      ],
      "name": "increaseAllowance",
      "outputs": [
        {
          "internalType": "bool",
          "name": "",
          "type": "bool"
        }
      ],
      "stateMutability": "nonpayable",
      "type": "function"
    },
    {
      "inputs": [
        {
          "internalType": "uint256",
          "name": "amount",
          "type": "uint256"
        }
      ],
      "name": "mint",
      "outputs": [],
      "stateMutability": "payable",
      "type": "function"
    },
    {
      "inputs": [],
      "name": "name",
      "outputs": [
        {
          "internalType": "string",
          "name": "",
          "type": "string"
        }
      ],
      "stateMutability": "view",
      "type": "function"
    },
    {
      "inputs": [],
      "name": "symbol",
      "outputs": [
        {
          "internalType": "string",
          "name": "",
          "type": "string"
        }
      ],
      "stateMutability": "view",
      "type": "function"
    },
    {
      "inputs": [],
      "name": "totalSupply",
      "outputs": [
        {
          "internalType": "uint256",
          "name": "",
          "type": "uint256"
        }
      ],
      "stateMutability": "view",
      "type": "function"
    },
    {
      "inputs": [
        {
          "internalType": "address",
          "name": "to",
          "type": "address"
        },
        {
          "internalType": "uint256",
          "name": "amount",
          "type": "uint256"
        }
      ],
      "name": "transfer",
      "outputs": [
        {
          "internalType": "bool",
          "name": "",
          "type": "bool"
        }
      ],
      "stateMutability": "nonpayable",
      "type": "function"
    },
    {
      "inputs": [
        {
          "internalType": "address",
          "name": "from",
          "type": "address"
        },
        {
          "internalType": "address",
          "name": "to",
          "type": "address"
        },
        {
          "internalType": "uint256",
          "name": "amount",
          "type": "uint256"
        }
      ],
      "name": "transferFrom",
      "outputs": [
        {
          "internalType": "bool",
          "name": "",
          "type": "bool"
        }
      ],
      "stateMutability": "nonpayable",
      "type": "function"
    },
    {
      "inputs": [],
      "name": "withdraw",
      "outputs": [],
      "stateMutability": "payable",
      "type": "function"
    },
    {
      "stateMutability": "payable",
      "type": "receive"
    }
  ],
  "bytecode": "0x60806040523480156200001157600080fd5b506040518060400160405280600c81526020017f466c69706b617274436f696e00000000000000000000000000000000000000008152506040518060400160405280600281526020017f5343000000000000000000000000000000000000000000000000000000000000815250816003908051906020019062000096929190620000f9565b508060049080519060200190620000af929190620000f9565b50505033600560006101000a81548173ffffffffffffffffffffffffffffffffffffffff021916908373ffffffffffffffffffffffffffffffffffffffff1602179055506200020e565b8280546200010790620001a9565b90600052602060002090601f0160209004810192826200012b576000855562000177565b82601f106200014657805160ff191683800117855562000177565b8280016001018555821562000177579182015b828111156200017657825182559160200191906001019062000159565b5b5090506200018691906200018a565b5090565b5b80821115620001a55760008160009055506001016200018b565b5090565b60006002820490506001821680620001c257607f821691505b60208210811415620001d957620001d8620001df565b5b50919050565b7f4e487b7100000000000000000000000000000000000000000000000000000000600052602260045260246000fd5b6118a1806200021e6000396000f3fe6080604052600436106100c65760003560e01c80633ccfd60b1161007f578063a0712d6811610059578063a0712d6814610279578063a457c2d714610295578063a9059cbb146102d2578063dd62ed3e1461030f576100cd565b80633ccfd60b1461020757806370a082311461021157806395d89b411461024e576100cd565b806306fdde03146100cf578063095ea7b3146100fa57806318160ddd1461013757806323b872dd14610162578063313ce5671461019f57806339509351146101ca576100cd565b366100cd57005b005b3480156100db57600080fd5b506100e461034c565b6040516100f191906111db565b60405180910390f35b34801561010657600080fd5b50610121600480360381019061011c9190610f3c565b6103de565b60405161012e91906111c0565b60405180910390f35b34801561014357600080fd5b5061014c610401565b604051610159919061135d565b60405180910390f35b34801561016e57600080fd5b5061018960048036038101906101849190610eed565b61040b565b60405161019691906111c0565b60405180910390f35b3480156101ab57600080fd5b506101b461043a565b6040516101c19190611378565b60405180910390f35b3480156101d657600080fd5b506101f160048036038101906101ec9190610f3c565b610443565b6040516101fe91906111c0565b60405180910390f35b61020f61047a565b005b34801561021d57600080fd5b5061023860048036038101906102339190610e88565b6105b9565b604051610245919061135d565b60405180910390f35b34801561025a57600080fd5b50610263610601565b60405161027091906111db565b60405180910390f35b610293600480360381019061028e9190610f78565b610693565b005b3480156102a157600080fd5b506102bc60048036038101906102b79190610f3c565b6106f3565b6040516102c991906111c0565b60405180910390f35b3480156102de57600080fd5b506102f960048036038101906102f49190610f3c565b61076a565b60405161030691906111c0565b60405180910390f35b34801561031b57600080fd5b5061033660048036038101906103319190610eb1565b61078d565b604051610343919061135d565b60405180910390f35b60606003805461035b906114f2565b80601f0160208091040260200160405190810160405280929190818152602001828054610387906114f2565b80156103d45780601f106103a9576101008083540402835291602001916103d4565b820191906000526020600020905b8154815290600101906020018083116103b757829003601f168201915b5050505050905090565b6000806103e9610814565b90506103f681858561081c565b600191505092915050565b6000600254905090565b600080610416610814565b90506104238582856109e7565b61042e858585610a73565b60019150509392505050565b60006012905090565b60008061044e610814565b905061046f818585610460858961078d565b61046a91906113ba565b61081c565b600191505092915050565b600560009054906101000a900473ffffffffffffffffffffffffffffffffffffffff1673ffffffffffffffffffffffffffffffffffffffff163373ffffffffffffffffffffffffffffffffffffffff161461050a576040517f08c379a0000000000000000000000000000000000000000000000000000000008152600401610501906112fd565b60405180910390fd5b60003373ffffffffffffffffffffffffffffffffffffffff1647604051610530906111ab565b60006040518083038185875af1925050503d806000811461056d576040519150601f19603f3d011682016040523d82523d6000602084013e610572565b606091505b50509050806105b6576040517f08c379a00000000000000000000000000000000000000000000000000000000081526004016105ad9061123d565b60405180910390fd5b50565b60008060008373ffffffffffffffffffffffffffffffffffffffff1673ffffffffffffffffffffffffffffffffffffffff168152602001908152602001600020549050919050565b606060048054610610906114f2565b80601f016020809104026020016040519081016040528092919081815260200182805461063c906114f2565b80156106895780601f1061065e57610100808354040283529160200191610689565b820191906000526020600020905b81548152906001019060200180831161066c57829003601f168201915b5050505050905090565b655af3107a4000816106a59190611410565b34146106e6576040517f08c379a00000000000000000000000000000000000000000000000000000000081526004016106dd906111fd565b60405180910390fd5b6106f03382610cf4565b50565b6000806106fe610814565b9050600061070c828661078d565b905083811015610751576040517f08c379a00000000000000000000000000000000000000000000000000000000081526004016107489061131d565b60405180910390fd5b61075e828686840361081c565b60019250505092915050565b600080610775610814565b9050610782818585610a73565b600191505092915050565b6000600160008473ffffffffffffffffffffffffffffffffffffffff1673ffffffffffffffffffffffffffffffffffffffff16815260200190815260200160002060008373ffffffffffffffffffffffffffffffffffffffff1673ffffffffffffffffffffffffffffffffffffffff16815260200190815260200160002054905092915050565b600033905090565b600073ffffffffffffffffffffffffffffffffffffffff168373ffffffffffffffffffffffffffffffffffffffff16141561088c576040517f08c379a0000000000000000000000000000000000000000000000000000000008152600401610883906112dd565b60405180910390fd5b600073ffffffffffffffffffffffffffffffffffffffff168273ffffffffffffffffffffffffffffffffffffffff1614156108fc576040517f08c379a00000000000000000000000000000000000000000000000000000000081526004016108f39061125d565b60405180910390fd5b80600160008573ffffffffffffffffffffffffffffffffffffffff1673ffffffffffffffffffffffffffffffffffffffff16815260200190815260200160002060008473ffffffffffffffffffffffffffffffffffffffff1673ffffffffffffffffffffffffffffffffffffffff168152602001908152602001600020819055508173ffffffffffffffffffffffffffffffffffffffff168373ffffffffffffffffffffffffffffffffffffffff167f8c5be1e5ebec7d5bd14f71427d1e84f3dd0314c0f7b2291e5b200ac8c7c3b925836040516109da919061135d565b60405180910390a3505050565b60006109f3848461078d565b90507fffffffffffffffffffffffffffffffffffffffffffffffffffffffffffffffff8114610a6d5781811015610a5f576040517f08c379a0000000000000000000000000000000000000000000000000000000008152600401610a569061127d565b60405180910390fd5b610a6c848484840361081c565b5b50505050565b600073ffffffffffffffffffffffffffffffffffffffff168373ffffffffffffffffffffffffffffffffffffffff161415610ae3576040517f08c379a0000000000000000000000000000000000000000000000000000000008152600401610ada906112bd565b60405180910390fd5b600073ffffffffffffffffffffffffffffffffffffffff168273ffffffffffffffffffffffffffffffffffffffff161415610b53576040517f08c379a0000000000000000000000000000000000000000000000000000000008152600401610b4a9061121d565b60405180910390fd5b610b5e838383610e54565b60008060008573ffffffffffffffffffffffffffffffffffffffff1673ffffffffffffffffffffffffffffffffffffffff16815260200190815260200160002054905081811015610be4576040517f08c379a0000000000000000000000000000000000000000000000000000000008152600401610bdb9061129d565b60405180910390fd5b8181036000808673ffffffffffffffffffffffffffffffffffffffff1673ffffffffffffffffffffffffffffffffffffffff16815260200190815260200160002081905550816000808573ffffffffffffffffffffffffffffffffffffffff1673ffffffffffffffffffffffffffffffffffffffff1681526020019081526020016000206000828254610c7791906113ba565b925050819055508273ffffffffffffffffffffffffffffffffffffffff168473ffffffffffffffffffffffffffffffffffffffff167fddf252ad1be2c89b69c2b068fc378daa952ba7f163c4a11628f55a4df523b3ef84604051610cdb919061135d565b60405180910390a3610cee848484610e59565b50505050565b600073ffffffffffffffffffffffffffffffffffffffff168273ffffffffffffffffffffffffffffffffffffffff161415610d64576040517f08c379a0000000000000000000000000000000000000000000000000000000008152600401610d5b9061133d565b60405180910390fd5b610d7060008383610e54565b8060026000828254610d8291906113ba565b92505081905550806000808473ffffffffffffffffffffffffffffffffffffffff1673ffffffffffffffffffffffffffffffffffffffff1681526020019081526020016000206000828254610dd791906113ba565b925050819055508173ffffffffffffffffffffffffffffffffffffffff16600073ffffffffffffffffffffffffffffffffffffffff167fddf252ad1be2c89b69c2b068fc378daa952ba7f163c4a11628f55a4df523b3ef83604051610e3c919061135d565b60405180910390a3610e5060008383610e59565b5050565b505050565b505050565b600081359050610e6d8161183d565b92915050565b600081359050610e8281611854565b92915050565b600060208284031215610e9a57600080fd5b6000610ea884828501610e5e565b91505092915050565b60008060408385031215610ec457600080fd5b6000610ed285828601610e5e565b9250506020610ee385828601610e5e565b9150509250929050565b600080600060608486031215610f0257600080fd5b6000610f1086828701610e5e565b9350506020610f2186828701610e5e565b9250506040610f3286828701610e73565b9150509250925092565b60008060408385031215610f4f57600080fd5b6000610f5d85828601610e5e565b9250506020610f6e85828601610e73565b9150509250929050565b600060208284031215610f8a57600080fd5b6000610f9884828501610e73565b91505092915050565b610faa8161147c565b82525050565b6000610fbb82611393565b610fc581856113a9565b9350610fd58185602086016114bf565b610fde81611582565b840191505092915050565b6000610ff66017836113a9565b915061100182611593565b602082019050919050565b60006110196023836113a9565b9150611024826115bc565b604082019050919050565b600061103c600b836113a9565b91506110478261160b565b602082019050919050565b600061105f6022836113a9565b915061106a82611634565b604082019050919050565b6000611082601d836113a9565b915061108d82611683565b602082019050919050565b60006110a56026836113a9565b91506110b0826116ac565b604082019050919050565b60006110c86025836113a9565b91506110d3826116fb565b604082019050919050565b60006110eb60008361139e565b91506110f68261174a565b600082019050919050565b600061110e6024836113a9565b91506111198261174d565b604082019050919050565b6000611131600f836113a9565b915061113c8261179c565b602082019050919050565b60006111546025836113a9565b915061115f826117c5565b604082019050919050565b6000611177601f836113a9565b915061118282611814565b602082019050919050565b611196816114a8565b82525050565b6111a5816114b2565b82525050565b60006111b6826110de565b9150819050919050565b60006020820190506111d56000830184610fa1565b92915050565b600060208201905081810360008301526111f58184610fb0565b905092915050565b6000602082019050818103600083015261121681610fe9565b9050919050565b600060208201905081810360008301526112368161100c565b9050919050565b600060208201905081810360008301526112568161102f565b9050919050565b6000602082019050818103600083015261127681611052565b9050919050565b6000602082019050818103600083015261129681611075565b9050919050565b600060208201905081810360008301526112b681611098565b9050919050565b600060208201905081810360008301526112d6816110bb565b9050919050565b600060208201905081810360008301526112f681611101565b9050919050565b6000602082019050818103600083015261131681611124565b9050919050565b6000602082019050818103600083015261133681611147565b9050919050565b600060208201905081810360008301526113568161116a565b9050919050565b6000602082019050611372600083018461118d565b92915050565b600060208201905061138d600083018461119c565b92915050565b600081519050919050565b600081905092915050565b600082825260208201905092915050565b60006113c5826114a8565b91506113d0836114a8565b9250827fffffffffffffffffffffffffffffffffffffffffffffffffffffffffffffffff0382111561140557611404611524565b5b828201905092915050565b600061141b826114a8565b9150611426836114a8565b9250817fffffffffffffffffffffffffffffffffffffffffffffffffffffffffffffffff048311821515161561145f5761145e611524565b5b828202905092915050565b600061147582611488565b9050919050565b60008115159050919050565b600073ffffffffffffffffffffffffffffffffffffffff82169050919050565b6000819050919050565b600060ff82169050919050565b60005b838110156114dd5780820151818401526020810190506114c2565b838111156114ec576000848401525b50505050565b6000600282049050600182168061150a57607f821691505b6020821081141561151e5761151d611553565b5b50919050565b7f4e487b7100000000000000000000000000000000000000000000000000000000600052601160045260246000fd5b7f4e487b7100000000000000000000000000000000000000000000000000000000600052602260045260246000fd5b6000601f19601f8301169050919050565b7f696e76616c696420616d6f756e74206f66206574686572000000000000000000600082015250565b7f45524332303a207472616e7366657220746f20746865207a65726f206164647260008201527f6573730000000000000000000000000000000000000000000000000000000000602082015250565b7f43616c6c206661696c6564000000000000000000000000000000000000000000600082015250565b7f45524332303a20617070726f766520746f20746865207a65726f20616464726560008201527f7373000000000000000000000000000000000000000000000000000000000000602082015250565b7f45524332303a20696e73756666696369656e7420616c6c6f77616e6365000000600082015250565b7f45524332303a207472616e7366657220616d6f756e742065786365656473206260008201527f616c616e63650000000000000000000000000000000000000000000000000000602082015250565b7f45524332303a207472616e736665722066726f6d20746865207a65726f20616460008201527f6472657373000000000000000000000000000000000000000000000000000000602082015250565b50565b7f45524332303a20617070726f76652066726f6d20746865207a65726f2061646460008201527f7265737300000000000000000000000000000000000000000000000000000000602082015250565b7f4e6f7420417574686f72697a6564210000000000000000000000000000000000600082015250565b7f45524332303a2064656372656173656420616c6c6f77616e63652062656c6f7760008201527f207a65726f000000000000000000000000000000000000000000000000000000602082015250565b7f45524332303a206d696e7420746f20746865207a65726f206164647265737300600082015250565b6118468161146a565b811461185157600080fd5b50565b61185d816114a8565b811461186857600080fd5b5056fea2646970667358221220c704127444ba444cae463de8bf1bb36de09cb3cab9fe47d7c4acca29e06a670e64736f6c63430008040033",
  "linkReferences": {},
  "deployedLinkReferences": {}
}