{
    "_format": "hh-sol-artifact-1",
    "contractName": "FlipkartInvoice",
    "sourceName": "contracts/FlipkartInvoice.sol",
    "abi": [
        {
            "inputs": [],
            "stateMutability": "nonpayable",
            "type": "constructor"
        },
        {
            "anonymous": false,
            "inputs": [
                {
                    "indexed": true,
                    "internalType": "address",
                    "name": "account",
                    "type": "address"
                },
                {
                    "indexed": true,
                    "internalType": "address",
                    "name": "operator",
                    "type": "address"
                },
                {
                    "indexed": false,
                    "internalType": "bool",
                    "name": "approved",
                    "type": "bool"
                }
            ],
            "name": "ApprovalForAll",
            "type": "event"
        },
        {
            "anonymous": false,
            "inputs": [
                {
                    "indexed": true,
                    "internalType": "address",
                    "name": "operator",
                    "type": "address"
                },
                {
                    "indexed": true,
                    "internalType": "address",
                    "name": "from",
                    "type": "address"
                },
                {
                    "indexed": true,
                    "internalType": "address",
                    "name": "to",
                    "type": "address"
                },
                {
                    "indexed": false,
                    "internalType": "uint256[]",
                    "name": "ids",
                    "type": "uint256[]"
                },
                {
                    "indexed": false,
                    "internalType": "uint256[]",
                    "name": "values",
                    "type": "uint256[]"
                }
            ],
            "name": "TransferBatch",
            "type": "event"
        },
        {
            "anonymous": false,
            "inputs": [
                {
                    "indexed": true,
                    "internalType": "address",
                    "name": "operator",
                    "type": "address"
                },
                {
                    "indexed": true,
                    "internalType": "address",
                    "name": "from",
                    "type": "address"
                },
                {
                    "indexed": true,
                    "internalType": "address",
                    "name": "to",
                    "type": "address"
                },
                {
                    "indexed": false,
                    "internalType": "uint256",
                    "name": "id",
                    "type": "uint256"
                },
                {
                    "indexed": false,
                    "internalType": "uint256",
                    "name": "value",
                    "type": "uint256"
                }
            ],
            "name": "TransferSingle",
            "type": "event"
        },
        {
            "anonymous": false,
            "inputs": [
                {
                    "indexed": false,
                    "internalType": "string",
                    "name": "value",
                    "type": "string"
                },
                {
                    "indexed": true,
                    "internalType": "uint256",
                    "name": "id",
                    "type": "uint256"
                }
            ],
            "name": "URI",
            "type": "event"
        },
        {
            "inputs": [
                {
                    "internalType": "address",
                    "name": "account",
                    "type": "address"
                },
                {
                    "internalType": "uint256",
                    "name": "id",
                    "type": "uint256"
                }
            ],
            "name": "balanceOf",
            "outputs": [
                {
                    "internalType": "uint256",
                    "name": "",
                    "type": "uint256"
                }
            ],
            "stateMutability": "view",
            "type": "function"
        },
        {
            "inputs": [
                {
                    "internalType": "address[]",
                    "name": "accounts",
                    "type": "address[]"
                },
                {
                    "internalType": "uint256[]",
                    "name": "ids",
                    "type": "uint256[]"
                }
            ],
            "name": "balanceOfBatch",
            "outputs": [
                {
                    "internalType": "uint256[]",
                    "name": "",
                    "type": "uint256[]"
                }
            ],
            "stateMutability": "view",
            "type": "function"
        },
        {
            "inputs": [
                {
                    "internalType": "bytes",
                    "name": "",
                    "type": "bytes"
                }
            ],
            "name": "checkUpkeep",
            "outputs": [
                {
                    "internalType": "bool",
                    "name": "upkeepNeeded",
                    "type": "bool"
                },
                {
                    "internalType": "bytes",
                    "name": "",
                    "type": "bytes"
                }
            ],
            "stateMutability": "view",
            "type": "function"
        },
        {
            "inputs": [
                {
                    "internalType": "address",
                    "name": "account",
                    "type": "address"
                },
                {
                    "internalType": "address",
                    "name": "operator",
                    "type": "address"
                }
            ],
            "name": "isApprovedForAll",
            "outputs": [
                {
                    "internalType": "bool",
                    "name": "",
                    "type": "bool"
                }
            ],
            "stateMutability": "view",
            "type": "function"
        },
        {
            "inputs": [
                {
                    "internalType": "address",
                    "name": "user_account",
                    "type": "address"
                },
                {
                    "internalType": "uint256",
                    "name": "purchased_product_id",
                    "type": "uint256"
                },
                {
                    "internalType": "uint256",
                    "name": "product_warranty_period",
                    "type": "uint256"
                },
                {
                    "internalType": "string",
                    "name": "transactionID",
                    "type": "string"
                }
            ],
            "name": "mintProductNFT",
            "outputs": [],
            "stateMutability": "nonpayable",
            "type": "function"
        },
        {
            "inputs": [
                {
                    "internalType": "bytes",
                    "name": "",
                    "type": "bytes"
                }
            ],
            "name": "performUpkeep",
            "outputs": [],
            "stateMutability": "nonpayable",
            "type": "function"
        },
        {
            "inputs": [
                {
                    "internalType": "address",
                    "name": "from",
                    "type": "address"
                },
                {
                    "internalType": "address",
                    "name": "to",
                    "type": "address"
                },
                {
                    "internalType": "uint256[]",
                    "name": "ids",
                    "type": "uint256[]"
                },
                {
                    "internalType": "uint256[]",
                    "name": "amounts",
                    "type": "uint256[]"
                },
                {
                    "internalType": "bytes",
                    "name": "data",
                    "type": "bytes"
                }
            ],
            "name": "safeBatchTransferFrom",
            "outputs": [],
            "stateMutability": "nonpayable",
            "type": "function"
        },
        {
            "inputs": [
                {
                    "internalType": "address",
                    "name": "from",
                    "type": "address"
                },
                {
                    "internalType": "address",
                    "name": "to",
                    "type": "address"
                },
                {
                    "internalType": "uint256",
                    "name": "id",
                    "type": "uint256"
                },
                {
                    "internalType": "uint256",
                    "name": "amount",
                    "type": "uint256"
                },
                {
                    "internalType": "bytes",
                    "name": "data",
                    "type": "bytes"
                }
            ],
            "name": "safeTransferFrom",
            "outputs": [],
            "stateMutability": "nonpayable",
            "type": "function"
        },
        {
            "inputs": [
                {
                    "internalType": "address",
                    "name": "operator",
                    "type": "address"
                },
                {
                    "internalType": "bool",
                    "name": "approved",
                    "type": "bool"
                }
            ],
            "name": "setApprovalForAll",
            "outputs": [],
            "stateMutability": "nonpayable",
            "type": "function"
        },
        {
            "inputs": [
                {
                    "internalType": "bytes4",
                    "name": "interfaceId",
                    "type": "bytes4"
                }
            ],
            "name": "supportsInterface",
            "outputs": [
                {
                    "internalType": "bool",
                    "name": "",
                    "type": "bool"
                }
            ],
            "stateMutability": "view",
            "type": "function"
        },
        {
            "inputs": [
                {
                    "internalType": "uint256",
                    "name": "",
                    "type": "uint256"
                }
            ],
            "name": "uri",
            "outputs": [
                {
                    "internalType": "string",
                    "name": "",
                    "type": "string"
                }
            ],
            "stateMutability": "view",
            "type": "function"
        }
    ],
    "bytecode": "0x60806040523480156200001157600080fd5b506040518060200160405280600081525062000033816200004a60201b60201c565b50600060038190555060006004819055506200017b565b80600290805190602001906200006292919062000066565b5050565b828054620000749062000116565b90600052602060002090601f016020900481019282620000985760008555620000e4565b82601f10620000b357805160ff1916838001178555620000e4565b82800160010185558215620000e4579182015b82811115620000e3578251825591602001919060010190620000c6565b5b509050620000f39190620000f7565b5090565b5b8082111562000112576000816000905550600101620000f8565b5090565b600060028204905060018216806200012f57607f821691505b602082108114156200014657620001456200014c565b5b50919050565b7f4e487b7100000000000000000000000000000000000000000000000000000000600052602260045260246000fd5b61336a806200018b6000396000f3fe608060405234801561001057600080fd5b50600436106100a85760003560e01c80634e1273f4116100715780634e1273f4146101755780636e04ff0d146101a5578063a22cb465146101d6578063a3ba0a3b146101f2578063e985e9c51461020e578063f242432a1461023e576100a8565b8062fdd58e146100ad57806301ffc9a7146100dd5780630e89341c1461010d5780632eb2c2d61461013d5780634585e33b14610159575b600080fd5b6100c760048036038101906100c291906122c2565b61025a565b6040516100d49190612a75565b60405180910390f35b6100f760048036038101906100f291906123e5565b610323565b6040516101049190612888565b60405180910390f35b6101276004803603810190610122919061247c565b610405565b60405161013491906128d3565b60405180910390f35b61015760048036038101906101529190612138565b610499565b005b610173600480360381019061016e9190612437565b61053a565b005b61018f600480360381019061018a9190612379565b610721565b60405161019c919061282f565b60405180910390f35b6101bf60048036038101906101ba9190612437565b6108d2565b6040516101cd9291906128a3565b60405180910390f35b6101f060048036038101906101eb9190612286565b610a32565b005b61020c600480360381019061020791906122fe565b610a48565b005b610228600480360381019061022391906120fc565b610b7d565b6040516102359190612888565b60405180910390f35b610258600480360381019061025391906121f7565b610c11565b005b60008073ffffffffffffffffffffffffffffffffffffffff168373ffffffffffffffffffffffffffffffffffffffff1614156102cb576040517f08c379a00000000000000000000000000000000000000000000000000000000081526004016102c290612975565b60405180910390fd5b60008083815260200190815260200160002060008473ffffffffffffffffffffffffffffffffffffffff1673ffffffffffffffffffffffffffffffffffffffff16815260200190815260200160002054905092915050565b60007fd9b67a26000000000000000000000000000000000000000000000000000000007bffffffffffffffffffffffffffffffffffffffffffffffffffffffff1916827bffffffffffffffffffffffffffffffffffffffffffffffffffffffff191614806103ee57507f0e89341c000000000000000000000000000000000000000000000000000000007bffffffffffffffffffffffffffffffffffffffffffffffffffffffff1916827bffffffffffffffffffffffffffffffffffffffffffffffffffffffff1916145b806103fe57506103fd82610cb2565b5b9050919050565b60606002805461041490612d15565b80601f016020809104026020016040519081016040528092919081815260200182805461044090612d15565b801561048d5780601f106104625761010080835404028352916020019161048d565b820191906000526020600020905b81548152906001019060200180831161047057829003601f168201915b50505050509050919050565b6104a1610d1c565b73ffffffffffffffffffffffffffffffffffffffff168573ffffffffffffffffffffffffffffffffffffffff1614806104e757506104e6856104e1610d1c565b610b7d565b5b610526576040517f08c379a000000000000000000000000000000000000000000000000000000000815260040161051d90612915565b60405180910390fd5b6105338585858585610d24565b5050505050565b60006005600060035481526020019081526020016000206040518060c001604052908160008201805461056c90612d15565b80601f016020809104026020016040519081016040528092919081815260200182805461059890612d15565b80156105e55780601f106105ba576101008083540402835291602001916105e5565b820191906000526020600020905b8154815290600101906020018083116105c857829003601f168201915b50505050508152602001600182015481526020016002820154815260200160038201548152602001600482015481526020016005820160009054906101000a900473ffffffffffffffffffffffffffffffffffffffff1673ffffffffffffffffffffffffffffffffffffffff1673ffffffffffffffffffffffffffffffffffffffff16815250509050806080015181606001516106829190612c09565b42111561071c5761069b8160a001518260200151611092565b600081604001519050600560006003548152602001908152602001600020600080820160006106ca9190611d6a565b60018201600090556002820160009055600382016000905560048201600090556005820160006101000a81549073ffffffffffffffffffffffffffffffffffffffff0219169055505080600381905550505b505050565b60608151835114610767576040517f08c379a000000000000000000000000000000000000000000000000000000000815260040161075e90612a15565b60405180910390fd5b6000835167ffffffffffffffff8111156107aa577f4e487b7100000000000000000000000000000000000000000000000000000000600052604160045260246000fd5b6040519080825280602002602001820160405280156107d85781602001602082028036833780820191505090505b50905060005b84518110156108c757610871858281518110610823577f4e487b7100000000000000000000000000000000000000000000000000000000600052603260045260246000fd5b6020026020010151858381518110610864577f4e487b7100000000000000000000000000000000000000000000000000000000600052603260045260246000fd5b602002602001015161025a565b8282815181106108aa577f4e487b7100000000000000000000000000000000000000000000000000000000600052603260045260246000fd5b602002602001018181525050806108c090612d78565b90506107de565b508091505092915050565b6000606060006005600060035481526020019081526020016000206040518060c001604052908160008201805461090890612d15565b80601f016020809104026020016040519081016040528092919081815260200182805461093490612d15565b80156109815780601f1061095657610100808354040283529160200191610981565b820191906000526020600020905b81548152906001019060200180831161096457829003601f168201915b50505050508152602001600182015481526020016002820154815260200160038201548152602001600482015481526020016005820160009054906101000a900473ffffffffffffffffffffffffffffffffffffffff1673ffffffffffffffffffffffffffffffffffffffff1673ffffffffffffffffffffffffffffffffffffffff1681525050905080608001518160600151610a1e9190612c09565b421115610a2a57600192505b509250929050565b610a44610a3d610d1c565b83836110a2565b5050565b610a64848460016040518060200160405280600081525061120f565b60006040518060c001604052808381526020018581526020016001600454610a8c9190612c09565b81526020014281526020018481526020018673ffffffffffffffffffffffffffffffffffffffff168152509050806005600060045481526020019081526020016000206000820151816000019080519060200190610aeb929190611daa565b506020820151816001015560408201518160020155606082015181600301556080820151816004015560a08201518160050160006101000a81548173ffffffffffffffffffffffffffffffffffffffff021916908373ffffffffffffffffffffffffffffffffffffffff16021790555090505060046000815480929190610b7190612d78565b91905055505050505050565b6000600160008473ffffffffffffffffffffffffffffffffffffffff1673ffffffffffffffffffffffffffffffffffffffff16815260200190815260200160002060008373ffffffffffffffffffffffffffffffffffffffff1673ffffffffffffffffffffffffffffffffffffffff16815260200190815260200160002060009054906101000a900460ff16905092915050565b610c19610d1c565b73ffffffffffffffffffffffffffffffffffffffff168573ffffffffffffffffffffffffffffffffffffffff161480610c5f5750610c5e85610c59610d1c565b610b7d565b5b610c9e576040517f08c379a0000000000000000000000000000000000000000000000000000000008152600401610c9590612915565b60405180910390fd5b610cab85858585856113c0565b5050505050565b60007f01ffc9a7000000000000000000000000000000000000000000000000000000007bffffffffffffffffffffffffffffffffffffffffffffffffffffffff1916827bffffffffffffffffffffffffffffffffffffffffffffffffffffffff1916149050919050565b600033905090565b8151835114610d68576040517f08c379a0000000000000000000000000000000000000000000000000000000008152600401610d5f90612a35565b60405180910390fd5b600073ffffffffffffffffffffffffffffffffffffffff168473ffffffffffffffffffffffffffffffffffffffff161415610dd8576040517f08c379a0000000000000000000000000000000000000000000000000000000008152600401610dcf90612995565b60405180910390fd5b6000610de2610d1c565b9050610df281878787878761165c565b60005b8451811015610fef576000858281518110610e39577f4e487b7100000000000000000000000000000000000000000000000000000000600052603260045260246000fd5b602002602001015190506000858381518110610e7e577f4e487b7100000000000000000000000000000000000000000000000000000000600052603260045260246000fd5b60200260200101519050600080600084815260200190815260200160002060008b73ffffffffffffffffffffffffffffffffffffffff1673ffffffffffffffffffffffffffffffffffffffff16815260200190815260200160002054905081811015610f1f576040517f08c379a0000000000000000000000000000000000000000000000000000000008152600401610f16906129d5565b60405180910390fd5b81810360008085815260200190815260200160002060008c73ffffffffffffffffffffffffffffffffffffffff1673ffffffffffffffffffffffffffffffffffffffff168152602001908152602001600020819055508160008085815260200190815260200160002060008b73ffffffffffffffffffffffffffffffffffffffff1673ffffffffffffffffffffffffffffffffffffffff1681526020019081526020016000206000828254610fd49190612c09565b9250508190555050505080610fe890612d78565b9050610df5565b508473ffffffffffffffffffffffffffffffffffffffff168673ffffffffffffffffffffffffffffffffffffffff168273ffffffffffffffffffffffffffffffffffffffff167f4a39dc06d4c0dbc64b70af90fd698a233a518aa5d07e595d983b8c0526c8f7fb8787604051611066929190612851565b60405180910390a461107c818787878787611664565b61108a81878787878761166c565b505050505050565b61109e82826001611853565b5050565b8173ffffffffffffffffffffffffffffffffffffffff168373ffffffffffffffffffffffffffffffffffffffff161415611111576040517f08c379a0000000000000000000000000000000000000000000000000000000008152600401611108906129f5565b60405180910390fd5b80600160008573ffffffffffffffffffffffffffffffffffffffff1673ffffffffffffffffffffffffffffffffffffffff16815260200190815260200160002060008473ffffffffffffffffffffffffffffffffffffffff1673ffffffffffffffffffffffffffffffffffffffff16815260200190815260200160002060006101000a81548160ff0219169083151502179055508173ffffffffffffffffffffffffffffffffffffffff168373ffffffffffffffffffffffffffffffffffffffff167f17307eab39ab6107e8899845ad3d59bd9653f200f220920489ca2b5937696c31836040516112029190612888565b60405180910390a3505050565b600073ffffffffffffffffffffffffffffffffffffffff168473ffffffffffffffffffffffffffffffffffffffff16141561127f576040517f08c379a000000000000000000000000000000000000000000000000000000000815260040161127690612a55565b60405180910390fd5b6000611289610d1c565b9050600061129685611a9a565b905060006112a385611a9a565b90506112b48360008985858961165c565b8460008088815260200190815260200160002060008973ffffffffffffffffffffffffffffffffffffffff1673ffffffffffffffffffffffffffffffffffffffff16815260200190815260200160002060008282546113139190612c09565b925050819055508673ffffffffffffffffffffffffffffffffffffffff16600073ffffffffffffffffffffffffffffffffffffffff168473ffffffffffffffffffffffffffffffffffffffff167fc3d58168c5ae7397731d063d5bbf3d657854427343f4c083240f7aacaa2d0f628989604051611391929190612a90565b60405180910390a46113a883600089858589611664565b6113b783600089898989611b60565b50505050505050565b600073ffffffffffffffffffffffffffffffffffffffff168473ffffffffffffffffffffffffffffffffffffffff161415611430576040517f08c379a000000000000000000000000000000000000000000000000000000000815260040161142790612995565b60405180910390fd5b600061143a610d1c565b9050600061144785611a9a565b9050600061145485611a9a565b905061146483898985858961165c565b600080600088815260200190815260200160002060008a73ffffffffffffffffffffffffffffffffffffffff1673ffffffffffffffffffffffffffffffffffffffff168152602001908152602001600020549050858110156114fb576040517f08c379a00000000000000000000000000000000000000000000000000000000081526004016114f2906129d5565b60405180910390fd5b85810360008089815260200190815260200160002060008b73ffffffffffffffffffffffffffffffffffffffff1673ffffffffffffffffffffffffffffffffffffffff168152602001908152602001600020819055508560008089815260200190815260200160002060008a73ffffffffffffffffffffffffffffffffffffffff1673ffffffffffffffffffffffffffffffffffffffff16815260200190815260200160002060008282546115b09190612c09565b925050819055508773ffffffffffffffffffffffffffffffffffffffff168973ffffffffffffffffffffffffffffffffffffffff168573ffffffffffffffffffffffffffffffffffffffff167fc3d58168c5ae7397731d063d5bbf3d657854427343f4c083240f7aacaa2d0f628a8a60405161162d929190612a90565b60405180910390a4611643848a8a86868a611664565b611651848a8a8a8a8a611b60565b505050505050505050565b505050505050565b505050505050565b61168b8473ffffffffffffffffffffffffffffffffffffffff16611d47565b1561184b578373ffffffffffffffffffffffffffffffffffffffff1663bc197c8187878686866040518663ffffffff1660e01b81526004016116d195949392919061276d565b602060405180830381600087803b1580156116eb57600080fd5b505af192505050801561171c57506040513d601f19601f82011682018060405250810190611719919061240e565b60015b6117c257611728612e4e565b806308c379a01415611785575061173d613242565b806117485750611787565b806040517f08c379a000000000000000000000000000000000000000000000000000000000815260040161177c91906128d3565b60405180910390fd5b505b6040517f08c379a00000000000000000000000000000000000000000000000000000000081526004016117b9906128f5565b60405180910390fd5b63bc197c8160e01b7bffffffffffffffffffffffffffffffffffffffffffffffffffffffff1916817bffffffffffffffffffffffffffffffffffffffffffffffffffffffff191614611849576040517f08c379a000000000000000000000000000000000000000000000000000000000815260040161184090612935565b60405180910390fd5b505b505050505050565b600073ffffffffffffffffffffffffffffffffffffffff168373ffffffffffffffffffffffffffffffffffffffff1614156118c3576040517f08c379a00000000000000000000000000000000000000000000000000000000081526004016118ba906129b5565b60405180910390fd5b60006118cd610d1c565b905060006118da84611a9a565b905060006118e784611a9a565b90506119078387600085856040518060200160405280600081525061165c565b600080600087815260200190815260200160002060008873ffffffffffffffffffffffffffffffffffffffff1673ffffffffffffffffffffffffffffffffffffffff1681526020019081526020016000205490508481101561199e576040517f08c379a000000000000000000000000000000000000000000000000000000000815260040161199590612955565b60405180910390fd5b84810360008088815260200190815260200160002060008973ffffffffffffffffffffffffffffffffffffffff1673ffffffffffffffffffffffffffffffffffffffff16815260200190815260200160002081905550600073ffffffffffffffffffffffffffffffffffffffff168773ffffffffffffffffffffffffffffffffffffffff168573ffffffffffffffffffffffffffffffffffffffff167fc3d58168c5ae7397731d063d5bbf3d657854427343f4c083240f7aacaa2d0f628989604051611a6b929190612a90565b60405180910390a4611a9184886000868660405180602001604052806000815250611664565b50505050505050565b60606000600167ffffffffffffffff811115611adf577f4e487b7100000000000000000000000000000000000000000000000000000000600052604160045260246000fd5b604051908082528060200260200182016040528015611b0d5781602001602082028036833780820191505090505b5090508281600081518110611b4b577f4e487b7100000000000000000000000000000000000000000000000000000000600052603260045260246000fd5b60200260200101818152505080915050919050565b611b7f8473ffffffffffffffffffffffffffffffffffffffff16611d47565b15611d3f578373ffffffffffffffffffffffffffffffffffffffff1663f23a6e6187878686866040518663ffffffff1660e01b8152600401611bc59594939291906127d5565b602060405180830381600087803b158015611bdf57600080fd5b505af1925050508015611c1057506040513d601f19601f82011682018060405250810190611c0d919061240e565b60015b611cb657611c1c612e4e565b806308c379a01415611c795750611c31613242565b80611c3c5750611c7b565b806040517f08c379a0000000000000000000000000000000000000000000000000000000008152600401611c7091906128d3565b60405180910390fd5b505b6040517f08c379a0000000000000000000000000000000000000000000000000000000008152600401611cad906128f5565b60405180910390fd5b63f23a6e6160e01b7bffffffffffffffffffffffffffffffffffffffffffffffffffffffff1916817bffffffffffffffffffffffffffffffffffffffffffffffffffffffff191614611d3d576040517f08c379a0000000000000000000000000000000000000000000000000000000008152600401611d3490612935565b60405180910390fd5b505b505050505050565b6000808273ffffffffffffffffffffffffffffffffffffffff163b119050919050565b508054611d7690612d15565b6000825580601f10611d885750611da7565b601f016020900490600052602060002090810190611da69190611e30565b5b50565b828054611db690612d15565b90600052602060002090601f016020900481019282611dd85760008555611e1f565b82601f10611df157805160ff1916838001178555611e1f565b82800160010185558215611e1f579182015b82811115611e1e578251825591602001919060010190611e03565b5b509050611e2c9190611e30565b5090565b5b80821115611e49576000816000905550600101611e31565b5090565b6000611e60611e5b84612ade565b612ab9565b90508083825260208201905082856020860282011115611e7f57600080fd5b60005b85811015611eaf5781611e958882611fa1565b845260208401935060208301925050600181019050611e82565b5050509392505050565b6000611ecc611ec784612b0a565b612ab9565b90508083825260208201905082856020860282011115611eeb57600080fd5b60005b85811015611f1b5781611f0188826120e7565b845260208401935060208301925050600181019050611eee565b5050509392505050565b6000611f38611f3384612b36565b612ab9565b905082815260208101848484011115611f5057600080fd5b611f5b848285612cd3565b509392505050565b6000611f76611f7184612b67565b612ab9565b905082815260208101848484011115611f8e57600080fd5b611f99848285612cd3565b509392505050565b600081359050611fb0816132d8565b92915050565b600082601f830112611fc757600080fd5b8135611fd7848260208601611e4d565b91505092915050565b600082601f830112611ff157600080fd5b8135612001848260208601611eb9565b91505092915050565b600081359050612019816132ef565b92915050565b60008135905061202e81613306565b92915050565b60008151905061204381613306565b92915050565b60008083601f84011261205b57600080fd5b8235905067ffffffffffffffff81111561207457600080fd5b60208301915083600182028301111561208c57600080fd5b9250929050565b600082601f8301126120a457600080fd5b81356120b4848260208601611f25565b91505092915050565b600082601f8301126120ce57600080fd5b81356120de848260208601611f63565b91505092915050565b6000813590506120f68161331d565b92915050565b6000806040838503121561210f57600080fd5b600061211d85828601611fa1565b925050602061212e85828601611fa1565b9150509250929050565b600080600080600060a0868803121561215057600080fd5b600061215e88828901611fa1565b955050602061216f88828901611fa1565b945050604086013567ffffffffffffffff81111561218c57600080fd5b61219888828901611fe0565b935050606086013567ffffffffffffffff8111156121b557600080fd5b6121c188828901611fe0565b925050608086013567ffffffffffffffff8111156121de57600080fd5b6121ea88828901612093565b9150509295509295909350565b600080600080600060a0868803121561220f57600080fd5b600061221d88828901611fa1565b955050602061222e88828901611fa1565b945050604061223f888289016120e7565b9350506060612250888289016120e7565b925050608086013567ffffffffffffffff81111561226d57600080fd5b61227988828901612093565b9150509295509295909350565b6000806040838503121561229957600080fd5b60006122a785828601611fa1565b92505060206122b88582860161200a565b9150509250929050565b600080604083850312156122d557600080fd5b60006122e385828601611fa1565b92505060206122f4858286016120e7565b9150509250929050565b6000806000806080858703121561231457600080fd5b600061232287828801611fa1565b9450506020612333878288016120e7565b9350506040612344878288016120e7565b925050606085013567ffffffffffffffff81111561236157600080fd5b61236d878288016120bd565b91505092959194509250565b6000806040838503121561238c57600080fd5b600083013567ffffffffffffffff8111156123a657600080fd5b6123b285828601611fb6565b925050602083013567ffffffffffffffff8111156123cf57600080fd5b6123db85828601611fe0565b9150509250929050565b6000602082840312156123f757600080fd5b60006124058482850161201f565b91505092915050565b60006020828403121561242057600080fd5b600061242e84828501612034565b91505092915050565b6000806020838503121561244a57600080fd5b600083013567ffffffffffffffff81111561246457600080fd5b61247085828601612049565b92509250509250929050565b60006020828403121561248e57600080fd5b600061249c848285016120e7565b91505092915050565b60006124b1838361274f565b60208301905092915050565b6124c681612c5f565b82525050565b60006124d782612ba8565b6124e18185612bd6565b93506124ec83612b98565b8060005b8381101561251d57815161250488826124a5565b975061250f83612bc9565b9250506001810190506124f0565b5085935050505092915050565b61253381612c71565b82525050565b600061254482612bb3565b61254e8185612be7565b935061255e818560208601612ce2565b61256781612e70565b840191505092915050565b600061257d82612bbe565b6125878185612bf8565b9350612597818560208601612ce2565b6125a081612e70565b840191505092915050565b60006125b8603483612bf8565b91506125c382612e8e565b604082019050919050565b60006125db602f83612bf8565b91506125e682612edd565b604082019050919050565b60006125fe602883612bf8565b915061260982612f2c565b604082019050919050565b6000612621602483612bf8565b915061262c82612f7b565b604082019050919050565b6000612644602a83612bf8565b915061264f82612fca565b604082019050919050565b6000612667602583612bf8565b915061267282613019565b604082019050919050565b600061268a602383612bf8565b915061269582613068565b604082019050919050565b60006126ad602a83612bf8565b91506126b8826130b7565b604082019050919050565b60006126d0602983612bf8565b91506126db82613106565b604082019050919050565b60006126f3602983612bf8565b91506126fe82613155565b604082019050919050565b6000612716602883612bf8565b9150612721826131a4565b604082019050919050565b6000612739602183612bf8565b9150612744826131f3565b604082019050919050565b61275881612cc9565b82525050565b61276781612cc9565b82525050565b600060a08201905061278260008301886124bd565b61278f60208301876124bd565b81810360408301526127a181866124cc565b905081810360608301526127b581856124cc565b905081810360808301526127c98184612539565b90509695505050505050565b600060a0820190506127ea60008301886124bd565b6127f760208301876124bd565b612804604083018661275e565b612811606083018561275e565b81810360808301526128238184612539565b90509695505050505050565b6000602082019050818103600083015261284981846124cc565b905092915050565b6000604082019050818103600083015261286b81856124cc565b9050818103602083015261287f81846124cc565b90509392505050565b600060208201905061289d600083018461252a565b92915050565b60006040820190506128b8600083018561252a565b81810360208301526128ca8184612539565b90509392505050565b600060208201905081810360008301526128ed8184612572565b905092915050565b6000602082019050818103600083015261290e816125ab565b9050919050565b6000602082019050818103600083015261292e816125ce565b9050919050565b6000602082019050818103600083015261294e816125f1565b9050919050565b6000602082019050818103600083015261296e81612614565b9050919050565b6000602082019050818103600083015261298e81612637565b9050919050565b600060208201905081810360008301526129ae8161265a565b9050919050565b600060208201905081810360008301526129ce8161267d565b9050919050565b600060208201905081810360008301526129ee816126a0565b9050919050565b60006020820190508181036000830152612a0e816126c3565b9050919050565b60006020820190508181036000830152612a2e816126e6565b9050919050565b60006020820190508181036000830152612a4e81612709565b9050919050565b60006020820190508181036000830152612a6e8161272c565b9050919050565b6000602082019050612a8a600083018461275e565b92915050565b6000604082019050612aa5600083018561275e565b612ab2602083018461275e565b9392505050565b6000612ac3612ad4565b9050612acf8282612d47565b919050565b6000604051905090565b600067ffffffffffffffff821115612af957612af8612e1f565b5b602082029050602081019050919050565b600067ffffffffffffffff821115612b2557612b24612e1f565b5b602082029050602081019050919050565b600067ffffffffffffffff821115612b5157612b50612e1f565b5b612b5a82612e70565b9050602081019050919050565b600067ffffffffffffffff821115612b8257612b81612e1f565b5b612b8b82612e70565b9050602081019050919050565b6000819050602082019050919050565b600081519050919050565b600081519050919050565b600081519050919050565b6000602082019050919050565b600082825260208201905092915050565b600082825260208201905092915050565b600082825260208201905092915050565b6000612c1482612cc9565b9150612c1f83612cc9565b9250827fffffffffffffffffffffffffffffffffffffffffffffffffffffffffffffffff03821115612c5457612c53612dc1565b5b828201905092915050565b6000612c6a82612ca9565b9050919050565b60008115159050919050565b60007fffffffff0000000000000000000000000000000000000000000000000000000082169050919050565b600073ffffffffffffffffffffffffffffffffffffffff82169050919050565b6000819050919050565b82818337600083830152505050565b60005b83811015612d00578082015181840152602081019050612ce5565b83811115612d0f576000848401525b50505050565b60006002820490506001821680612d2d57607f821691505b60208210811415612d4157612d40612df0565b5b50919050565b612d5082612e70565b810181811067ffffffffffffffff82111715612d6f57612d6e612e1f565b5b80604052505050565b6000612d8382612cc9565b91507fffffffffffffffffffffffffffffffffffffffffffffffffffffffffffffffff821415612db657612db5612dc1565b5b600182019050919050565b7f4e487b7100000000000000000000000000000000000000000000000000000000600052601160045260246000fd5b7f4e487b7100000000000000000000000000000000000000000000000000000000600052602260045260246000fd5b7f4e487b7100000000000000000000000000000000000000000000000000000000600052604160045260246000fd5b600060033d1115612e6d5760046000803e612e6a600051612e81565b90505b90565b6000601f19601f8301169050919050565b60008160e01c9050919050565b7f455243313135353a207472616e7366657220746f206e6f6e204552433131353560008201527f526563656976657220696d706c656d656e746572000000000000000000000000602082015250565b7f455243313135353a2063616c6c6572206973206e6f7420746f6b656e206f776e60008201527f6572206e6f7220617070726f7665640000000000000000000000000000000000602082015250565b7f455243313135353a204552433131353552656365697665722072656a6563746560008201527f6420746f6b656e73000000000000000000000000000000000000000000000000602082015250565b7f455243313135353a206275726e20616d6f756e7420657863656564732062616c60008201527f616e636500000000000000000000000000000000000000000000000000000000602082015250565b7f455243313135353a2061646472657373207a65726f206973206e6f742061207660008201527f616c6964206f776e657200000000000000000000000000000000000000000000602082015250565b7f455243313135353a207472616e7366657220746f20746865207a65726f20616460008201527f6472657373000000000000000000000000000000000000000000000000000000602082015250565b7f455243313135353a206275726e2066726f6d20746865207a65726f206164647260008201527f6573730000000000000000000000000000000000000000000000000000000000602082015250565b7f455243313135353a20696e73756666696369656e742062616c616e636520666f60008201527f72207472616e7366657200000000000000000000000000000000000000000000602082015250565b7f455243313135353a2073657474696e6720617070726f76616c2073746174757360008201527f20666f722073656c660000000000000000000000000000000000000000000000602082015250565b7f455243313135353a206163636f756e747320616e6420696473206c656e67746860008201527f206d69736d617463680000000000000000000000000000000000000000000000602082015250565b7f455243313135353a2069647320616e6420616d6f756e7473206c656e6774682060008201527f6d69736d61746368000000000000000000000000000000000000000000000000602082015250565b7f455243313135353a206d696e7420746f20746865207a65726f2061646472657360008201527f7300000000000000000000000000000000000000000000000000000000000000602082015250565b600060443d1015613252576132d5565b61325a612ad4565b60043d036004823e80513d602482011167ffffffffffffffff821117156132825750506132d5565b808201805167ffffffffffffffff8111156132a057505050506132d5565b80602083010160043d0385018111156132bd5750505050506132d5565b6132cc82602001850186612d47565b82955050505050505b90565b6132e181612c5f565b81146132ec57600080fd5b50565b6132f881612c71565b811461330357600080fd5b50565b61330f81612c7d565b811461331a57600080fd5b50565b61332681612cc9565b811461333157600080fd5b5056fea2646970667358221220598f49ef1b8c0388e204f9ef091e69648fa4ee5310c03bb75facd3b36d416e2b64736f6c63430008040033",
    "linkReferences": {},
    "deployedLinkReferences": {}
}