{
  "_format": "hh-sol-artifact-1",
  "contractName": "FlipkartInvoice",
  "sourceName": "contracts/FlipkartInvoice.sol",
  "abi": [
    {
      "inputs": [],
      "stateMutability": "nonpayable",
      "type": "constructor"
    },
    {
      "anonymous": false,
      "inputs": [
        {
          "indexed": true,
          "internalType": "address",
          "name": "account",
          "type": "address"
        },
        {
          "indexed": true,
          "internalType": "address",
          "name": "operator",
          "type": "address"
        },
        {
          "indexed": false,
          "internalType": "bool",
          "name": "approved",
          "type": "bool"
        }
      ],
      "name": "ApprovalForAll",
      "type": "event"
    },
    {
      "anonymous": false,
      "inputs": [
        {
          "indexed": true,
          "internalType": "address",
          "name": "operator",
          "type": "address"
        },
        {
          "indexed": true,
          "internalType": "address",
          "name": "from",
          "type": "address"
        },
        {
          "indexed": true,
          "internalType": "address",
          "name": "to",
          "type": "address"
        },
        {
          "indexed": false,
          "internalType": "uint256[]",
          "name": "ids",
          "type": "uint256[]"
        },
        {
          "indexed": false,
          "internalType": "uint256[]",
          "name": "values",
          "type": "uint256[]"
        }
      ],
      "name": "TransferBatch",
      "type": "event"
    },
    {
      "anonymous": false,
      "inputs": [
        {
          "indexed": true,
          "internalType": "address",
          "name": "operator",
          "type": "address"
        },
        {
          "indexed": true,
          "internalType": "address",
          "name": "from",
          "type": "address"
        },
        {
          "indexed": true,
          "internalType": "address",
          "name": "to",
          "type": "address"
        },
        {
          "indexed": false,
          "internalType": "uint256",
          "name": "id",
          "type": "uint256"
        },
        {
          "indexed": false,
          "internalType": "uint256",
          "name": "value",
          "type": "uint256"
        }
      ],
      "name": "TransferSingle",
      "type": "event"
    },
    {
      "anonymous": false,
      "inputs": [
        {
          "indexed": false,
          "internalType": "string",
          "name": "value",
          "type": "string"
        },
        {
          "indexed": true,
          "internalType": "uint256",
          "name": "id",
          "type": "uint256"
        }
      ],
      "name": "URI",
      "type": "event"
    },
    {
      "stateMutability": "payable",
      "type": "fallback"
    },
    {
      "inputs": [
        {
          "internalType": "address",
          "name": "account",
          "type": "address"
        },
        {
          "internalType": "uint256",
          "name": "id",
          "type": "uint256"
        }
      ],
      "name": "balanceOf",
      "outputs": [
        {
          "internalType": "uint256",
          "name": "",
          "type": "uint256"
        }
      ],
      "stateMutability": "view",
      "type": "function"
    },
    {
      "inputs": [
        {
          "internalType": "address[]",
          "name": "accounts",
          "type": "address[]"
        },
        {
          "internalType": "uint256[]",
          "name": "ids",
          "type": "uint256[]"
        }
      ],
      "name": "balanceOfBatch",
      "outputs": [
        {
          "internalType": "uint256[]",
          "name": "",
          "type": "uint256[]"
        }
      ],
      "stateMutability": "view",
      "type": "function"
    },
    {
      "inputs": [
        {
          "internalType": "bytes",
          "name": "",
          "type": "bytes"
        }
      ],
      "name": "checkUpkeep",
      "outputs": [
        {
          "internalType": "bool",
          "name": "upkeepNeeded",
          "type": "bool"
        },
        {
          "internalType": "bytes",
          "name": "",
          "type": "bytes"
        }
      ],
      "stateMutability": "view",
      "type": "function"
    },
    {
      "inputs": [
        {
          "internalType": "address",
          "name": "account",
          "type": "address"
        },
        {
          "internalType": "address",
          "name": "operator",
          "type": "address"
        }
      ],
      "name": "isApprovedForAll",
      "outputs": [
        {
          "internalType": "bool",
          "name": "",
          "type": "bool"
        }
      ],
      "stateMutability": "view",
      "type": "function"
    },
    {
      "inputs": [
        {
          "internalType": "address",
          "name": "user_account",
          "type": "address"
        },
        {
          "internalType": "uint256",
          "name": "product_id",
          "type": "uint256"
        }
      ],
      "name": "isOwner",
      "outputs": [
        {
          "internalType": "bool",
          "name": "",
          "type": "bool"
        }
      ],
      "stateMutability": "view",
      "type": "function"
    },
    {
      "inputs": [
        {
          "internalType": "address",
          "name": "user_account",
          "type": "address"
        },
        {
          "internalType": "uint256",
          "name": "purchased_product_id",
          "type": "uint256"
        },
        {
          "internalType": "uint256",
          "name": "quantity",
          "type": "uint256"
        },
        {
          "internalType": "uint256",
          "name": "product_warranty_period",
          "type": "uint256"
        },
        {
          "internalType": "string",
          "name": "transactionID",
          "type": "string"
        }
      ],
      "name": "mintProductNFT",
      "outputs": [],
      "stateMutability": "nonpayable",
      "type": "function"
    },
    {
      "inputs": [
        {
          "internalType": "bytes",
          "name": "",
          "type": "bytes"
        }
      ],
      "name": "performUpkeep",
      "outputs": [],
      "stateMutability": "nonpayable",
      "type": "function"
    },
    {
      "inputs": [
        {
          "internalType": "address",
          "name": "from",
          "type": "address"
        },
        {
          "internalType": "address",
          "name": "to",
          "type": "address"
        },
        {
          "internalType": "uint256[]",
          "name": "ids",
          "type": "uint256[]"
        },
        {
          "internalType": "uint256[]",
          "name": "amounts",
          "type": "uint256[]"
        },
        {
          "internalType": "bytes",
          "name": "data",
          "type": "bytes"
        }
      ],
      "name": "safeBatchTransferFrom",
      "outputs": [],
      "stateMutability": "nonpayable",
      "type": "function"
    },
    {
      "inputs": [
        {
          "internalType": "address",
          "name": "from",
          "type": "address"
        },
        {
          "internalType": "address",
          "name": "to",
          "type": "address"
        },
        {
          "internalType": "uint256",
          "name": "id",
          "type": "uint256"
        },
        {
          "internalType": "uint256",
          "name": "amount",
          "type": "uint256"
        },
        {
          "internalType": "bytes",
          "name": "data",
          "type": "bytes"
        }
      ],
      "name": "safeTransferFrom",
      "outputs": [],
      "stateMutability": "nonpayable",
      "type": "function"
    },
    {
      "inputs": [
        {
          "internalType": "address",
          "name": "operator",
          "type": "address"
        },
        {
          "internalType": "bool",
          "name": "approved",
          "type": "bool"
        }
      ],
      "name": "setApprovalForAll",
      "outputs": [],
      "stateMutability": "nonpayable",
      "type": "function"
    },
    {
      "inputs": [
        {
          "internalType": "bytes4",
          "name": "interfaceId",
          "type": "bytes4"
        }
      ],
      "name": "supportsInterface",
      "outputs": [
        {
          "internalType": "bool",
          "name": "",
          "type": "bool"
        }
      ],
      "stateMutability": "view",
      "type": "function"
    },
    {
      "inputs": [
        {
          "internalType": "uint256",
          "name": "",
          "type": "uint256"
        }
      ],
      "name": "uri",
      "outputs": [
        {
          "internalType": "string",
          "name": "",
          "type": "string"
        }
      ],
      "stateMutability": "view",
      "type": "function"
    },
    {
      "inputs": [],
      "name": "withdraw",
      "outputs": [],
      "stateMutability": "payable",
      "type": "function"
    },
    {
      "stateMutability": "payable",
      "type": "receive"
    }
  ],
  "bytecode": "0x60806040523480156200001157600080fd5b506040518060200160405280600081525062000033816200008b60201b60201c565b5033600360006101000a81548173ffffffffffffffffffffffffffffffffffffffff021916908373ffffffffffffffffffffffffffffffffffffffff16021790555060006004819055506000600581905550620001bc565b8060029080519060200190620000a3929190620000a7565b5050565b828054620000b59062000157565b90600052602060002090601f016020900481019282620000d9576000855562000125565b82601f10620000f457805160ff191683800117855562000125565b8280016001018555821562000125579182015b828111156200012457825182559160200191906001019062000107565b5b50905062000134919062000138565b5090565b5b808211156200015357600081600090555060010162000139565b5090565b600060028204905060018216806200017057607f821691505b602082108114156200018757620001866200018d565b5b50919050565b7f4e487b7100000000000000000000000000000000000000000000000000000000600052602260045260246000fd5b61379080620001cc6000396000f3fe6080604052600436106100c55760003560e01c80634585e33b1161007f578063a22cb46511610059578063a22cb46514610285578063e327a6af146102ae578063e985e9c5146102eb578063f242432a14610328576100cc565b80634585e33b146101e15780634e1273f41461020a5780636e04ff0d14610247576100cc565b8062fdd58e146100ce57806301cf65a61461010b57806301ffc9a7146101345780630e89341c146101715780632eb2c2d6146101ae5780633ccfd60b146101d7576100cc565b366100cc57005b005b3480156100da57600080fd5b506100f560048036038101906100f0919061255c565b610351565b6040516101029190612de1565b60405180910390f35b34801561011757600080fd5b50610132600480360381019061012d9190612598565b61041a565b005b34801561014057600080fd5b5061015b60048036038101906101569190612693565b61056b565b6040516101689190612bb4565b60405180910390f35b34801561017d57600080fd5b506101986004803603810190610193919061272a565b61064d565b6040516101a59190612bff565b60405180910390f35b3480156101ba57600080fd5b506101d560048036038101906101d091906123d2565b6106e1565b005b6101df610782565b005b3480156101ed57600080fd5b50610208600480360381019061020391906126e5565b6108c1565b005b34801561021657600080fd5b50610231600480360381019061022c9190612627565b610abf565b60405161023e9190612b5b565b60405180910390f35b34801561025357600080fd5b5061026e600480360381019061026991906126e5565b610c70565b60405161027c929190612bcf565b60405180910390f35b34801561029157600080fd5b506102ac60048036038101906102a79190612520565b610dda565b005b3480156102ba57600080fd5b506102d560048036038101906102d0919061255c565b610df0565b6040516102e29190612bb4565b60405180910390f35b3480156102f757600080fd5b50610312600480360381019061030d9190612396565b610e17565b60405161031f9190612bb4565b60405180910390f35b34801561033457600080fd5b5061034f600480360381019061034a9190612491565b610eab565b005b60008073ffffffffffffffffffffffffffffffffffffffff168373ffffffffffffffffffffffffffffffffffffffff1614156103c2576040517f08c379a00000000000000000000000000000000000000000000000000000000081526004016103b990612cc1565b60405180910390fd5b60008083815260200190815260200160002060008473ffffffffffffffffffffffffffffffffffffffff1673ffffffffffffffffffffffffffffffffffffffff16815260200190815260200160002054905092915050565b610441858585600261042c9190612fd6565b60405180602001604052806000815250610f4c565b60006040518060e0016040528083815260200186815260200160016005546104699190612f80565b81526020018581526020014281526020018481526020018773ffffffffffffffffffffffffffffffffffffffff1681525090508060066000600554815260200190815260200160002060008201518160000190805190602001906104ce929190612004565b506020820151816001015560408201518160020155606082015181600301556080820151816004015560a0820151816005015560c08201518160060160006101000a81548173ffffffffffffffffffffffffffffffffffffffff021916908373ffffffffffffffffffffffffffffffffffffffff1602179055509050506005600081548092919061055e90613149565b9190505550505050505050565b60007fd9b67a26000000000000000000000000000000000000000000000000000000007bffffffffffffffffffffffffffffffffffffffffffffffffffffffff1916827bffffffffffffffffffffffffffffffffffffffffffffffffffffffff1916148061063657507f0e89341c000000000000000000000000000000000000000000000000000000007bffffffffffffffffffffffffffffffffffffffffffffffffffffffff1916827bffffffffffffffffffffffffffffffffffffffffffffffffffffffff1916145b806106465750610645826110fd565b5b9050919050565b60606002805461065c906130e6565b80601f0160208091040260200160405190810160405280929190818152602001828054610688906130e6565b80156106d55780601f106106aa576101008083540402835291602001916106d5565b820191906000526020600020905b8154815290600101906020018083116106b857829003601f168201915b50505050509050919050565b6106e9611167565b73ffffffffffffffffffffffffffffffffffffffff168573ffffffffffffffffffffffffffffffffffffffff16148061072f575061072e85610729611167565b610e17565b5b61076e576040517f08c379a000000000000000000000000000000000000000000000000000000000815260040161076590612c41565b60405180910390fd5b61077b858585858561116f565b5050505050565b600360009054906101000a900473ffffffffffffffffffffffffffffffffffffffff1673ffffffffffffffffffffffffffffffffffffffff163373ffffffffffffffffffffffffffffffffffffffff1614610812576040517f08c379a000000000000000000000000000000000000000000000000000000000815260040161080990612dc1565b60405180910390fd5b60003373ffffffffffffffffffffffffffffffffffffffff164760405161083890612a84565b60006040518083038185875af1925050503d8060008114610875576040519150601f19603f3d011682016040523d82523d6000602084013e61087a565b606091505b50509050806108be576040517f08c379a00000000000000000000000000000000000000000000000000000000081526004016108b590612c81565b60405180910390fd5b50565b60006006600060045481526020019081526020016000206040518060e00160405290816000820180546108f3906130e6565b80601f016020809104026020016040519081016040528092919081815260200182805461091f906130e6565b801561096c5780601f106109415761010080835404028352916020019161096c565b820191906000526020600020905b81548152906001019060200180831161094f57829003601f168201915b5050505050815260200160018201548152602001600282015481526020016003820154815260200160048201548152602001600582015481526020016006820160009054906101000a900473ffffffffffffffffffffffffffffffffffffffff1673ffffffffffffffffffffffffffffffffffffffff1673ffffffffffffffffffffffffffffffffffffffff168152505090508060a001518160800151610a139190612f80565b421115610aba57610a318160c00151826020015183606001516114dd565b60008160400151905060066000600454815260200190815260200160002060008082016000610a60919061208a565b600182016000905560028201600090556003820160009055600482016000905560058201600090556006820160006101000a81549073ffffffffffffffffffffffffffffffffffffffff0219169055505080600481905550505b505050565b60608151835114610b05576040517f08c379a0000000000000000000000000000000000000000000000000000000008152600401610afc90612d61565b60405180910390fd5b6000835167ffffffffffffffff811115610b48577f4e487b7100000000000000000000000000000000000000000000000000000000600052604160045260246000fd5b604051908082528060200260200182016040528015610b765781602001602082028036833780820191505090505b50905060005b8451811015610c6557610c0f858281518110610bc1577f4e487b7100000000000000000000000000000000000000000000000000000000600052603260045260246000fd5b6020026020010151858381518110610c02577f4e487b7100000000000000000000000000000000000000000000000000000000600052603260045260246000fd5b6020026020010151610351565b828281518110610c48577f4e487b7100000000000000000000000000000000000000000000000000000000600052603260045260246000fd5b60200260200101818152505080610c5e90613149565b9050610b7c565b508091505092915050565b6000606060006006600060045481526020019081526020016000206040518060e0016040529081600082018054610ca6906130e6565b80601f0160208091040260200160405190810160405280929190818152602001828054610cd2906130e6565b8015610d1f5780601f10610cf457610100808354040283529160200191610d1f565b820191906000526020600020905b815481529060010190602001808311610d0257829003601f168201915b5050505050815260200160018201548152602001600282015481526020016003820154815260200160048201548152602001600582015481526020016006820160009054906101000a900473ffffffffffffffffffffffffffffffffffffffff1673ffffffffffffffffffffffffffffffffffffffff1673ffffffffffffffffffffffffffffffffffffffff168152505090508060a001518160800151610dc69190612f80565b421115610dd257600192505b509250929050565b610dec610de5611167565b83836114ed565b5050565b600080610dfd8484610351565b1115610e0c5760019050610e11565b600090505b92915050565b6000600160008473ffffffffffffffffffffffffffffffffffffffff1673ffffffffffffffffffffffffffffffffffffffff16815260200190815260200160002060008373ffffffffffffffffffffffffffffffffffffffff1673ffffffffffffffffffffffffffffffffffffffff16815260200190815260200160002060009054906101000a900460ff16905092915050565b610eb3611167565b73ffffffffffffffffffffffffffffffffffffffff168573ffffffffffffffffffffffffffffffffffffffff161480610ef95750610ef885610ef3611167565b610e17565b5b610f38576040517f08c379a0000000000000000000000000000000000000000000000000000000008152600401610f2f90612c41565b60405180910390fd5b610f45858585858561165a565b5050505050565b600073ffffffffffffffffffffffffffffffffffffffff168473ffffffffffffffffffffffffffffffffffffffff161415610fbc576040517f08c379a0000000000000000000000000000000000000000000000000000000008152600401610fb390612da1565b60405180910390fd5b6000610fc6611167565b90506000610fd3856118f6565b90506000610fe0856118f6565b9050610ff1836000898585896119bc565b8460008088815260200190815260200160002060008973ffffffffffffffffffffffffffffffffffffffff1673ffffffffffffffffffffffffffffffffffffffff16815260200190815260200160002060008282546110509190612f80565b925050819055508673ffffffffffffffffffffffffffffffffffffffff16600073ffffffffffffffffffffffffffffffffffffffff168473ffffffffffffffffffffffffffffffffffffffff167fc3d58168c5ae7397731d063d5bbf3d657854427343f4c083240f7aacaa2d0f6289896040516110ce929190612dfc565b60405180910390a46110e5836000898585896119c4565b6110f4836000898989896119cc565b50505050505050565b60007f01ffc9a7000000000000000000000000000000000000000000000000000000007bffffffffffffffffffffffffffffffffffffffffffffffffffffffff1916827bffffffffffffffffffffffffffffffffffffffffffffffffffffffff1916149050919050565b600033905090565b81518351146111b3576040517f08c379a00000000000000000000000000000000000000000000000000000000081526004016111aa90612d81565b60405180910390fd5b600073ffffffffffffffffffffffffffffffffffffffff168473ffffffffffffffffffffffffffffffffffffffff161415611223576040517f08c379a000000000000000000000000000000000000000000000000000000000815260040161121a90612ce1565b60405180910390fd5b600061122d611167565b905061123d8187878787876119bc565b60005b845181101561143a576000858281518110611284577f4e487b7100000000000000000000000000000000000000000000000000000000600052603260045260246000fd5b6020026020010151905060008583815181106112c9577f4e487b7100000000000000000000000000000000000000000000000000000000600052603260045260246000fd5b60200260200101519050600080600084815260200190815260200160002060008b73ffffffffffffffffffffffffffffffffffffffff1673ffffffffffffffffffffffffffffffffffffffff1681526020019081526020016000205490508181101561136a576040517f08c379a000000000000000000000000000000000000000000000000000000000815260040161136190612d21565b60405180910390fd5b81810360008085815260200190815260200160002060008c73ffffffffffffffffffffffffffffffffffffffff1673ffffffffffffffffffffffffffffffffffffffff168152602001908152602001600020819055508160008085815260200190815260200160002060008b73ffffffffffffffffffffffffffffffffffffffff1673ffffffffffffffffffffffffffffffffffffffff168152602001908152602001600020600082825461141f9190612f80565b925050819055505050508061143390613149565b9050611240565b508473ffffffffffffffffffffffffffffffffffffffff168673ffffffffffffffffffffffffffffffffffffffff168273ffffffffffffffffffffffffffffffffffffffff167f4a39dc06d4c0dbc64b70af90fd698a233a518aa5d07e595d983b8c0526c8f7fb87876040516114b1929190612b7d565b60405180910390a46114c78187878787876119c4565b6114d5818787878787611bb3565b505050505050565b6114e8838383611d9a565b505050565b8173ffffffffffffffffffffffffffffffffffffffff168373ffffffffffffffffffffffffffffffffffffffff16141561155c576040517f08c379a000000000000000000000000000000000000000000000000000000000815260040161155390612d41565b60405180910390fd5b80600160008573ffffffffffffffffffffffffffffffffffffffff1673ffffffffffffffffffffffffffffffffffffffff16815260200190815260200160002060008473ffffffffffffffffffffffffffffffffffffffff1673ffffffffffffffffffffffffffffffffffffffff16815260200190815260200160002060006101000a81548160ff0219169083151502179055508173ffffffffffffffffffffffffffffffffffffffff168373ffffffffffffffffffffffffffffffffffffffff167f17307eab39ab6107e8899845ad3d59bd9653f200f220920489ca2b5937696c318360405161164d9190612bb4565b60405180910390a3505050565b600073ffffffffffffffffffffffffffffffffffffffff168473ffffffffffffffffffffffffffffffffffffffff1614156116ca576040517f08c379a00000000000000000000000000000000000000000000000000000000081526004016116c190612ce1565b60405180910390fd5b60006116d4611167565b905060006116e1856118f6565b905060006116ee856118f6565b90506116fe8389898585896119bc565b600080600088815260200190815260200160002060008a73ffffffffffffffffffffffffffffffffffffffff1673ffffffffffffffffffffffffffffffffffffffff16815260200190815260200160002054905085811015611795576040517f08c379a000000000000000000000000000000000000000000000000000000000815260040161178c90612d21565b60405180910390fd5b85810360008089815260200190815260200160002060008b73ffffffffffffffffffffffffffffffffffffffff1673ffffffffffffffffffffffffffffffffffffffff168152602001908152602001600020819055508560008089815260200190815260200160002060008a73ffffffffffffffffffffffffffffffffffffffff1673ffffffffffffffffffffffffffffffffffffffff168152602001908152602001600020600082825461184a9190612f80565b925050819055508773ffffffffffffffffffffffffffffffffffffffff168973ffffffffffffffffffffffffffffffffffffffff168573ffffffffffffffffffffffffffffffffffffffff167fc3d58168c5ae7397731d063d5bbf3d657854427343f4c083240f7aacaa2d0f628a8a6040516118c7929190612dfc565b60405180910390a46118dd848a8a86868a6119c4565b6118eb848a8a8a8a8a6119cc565b505050505050505050565b60606000600167ffffffffffffffff81111561193b577f4e487b7100000000000000000000000000000000000000000000000000000000600052604160045260246000fd5b6040519080825280602002602001820160405280156119695781602001602082028036833780820191505090505b50905082816000815181106119a7577f4e487b7100000000000000000000000000000000000000000000000000000000600052603260045260246000fd5b60200260200101818152505080915050919050565b505050505050565b505050505050565b6119eb8473ffffffffffffffffffffffffffffffffffffffff16611fe1565b15611bab578373ffffffffffffffffffffffffffffffffffffffff1663f23a6e6187878686866040518663ffffffff1660e01b8152600401611a31959493929190612b01565b602060405180830381600087803b158015611a4b57600080fd5b505af1925050508015611a7c57506040513d601f19601f82011682018060405250810190611a7991906126bc565b60015b611b2257611a8861321f565b806308c379a01415611ae55750611a9d613668565b80611aa85750611ae7565b806040517f08c379a0000000000000000000000000000000000000000000000000000000008152600401611adc9190612bff565b60405180910390fd5b505b6040517f08c379a0000000000000000000000000000000000000000000000000000000008152600401611b1990612c21565b60405180910390fd5b63f23a6e6160e01b7bffffffffffffffffffffffffffffffffffffffffffffffffffffffff1916817bffffffffffffffffffffffffffffffffffffffffffffffffffffffff191614611ba9576040517f08c379a0000000000000000000000000000000000000000000000000000000008152600401611ba090612c61565b60405180910390fd5b505b505050505050565b611bd28473ffffffffffffffffffffffffffffffffffffffff16611fe1565b15611d92578373ffffffffffffffffffffffffffffffffffffffff1663bc197c8187878686866040518663ffffffff1660e01b8152600401611c18959493929190612a99565b602060405180830381600087803b158015611c3257600080fd5b505af1925050508015611c6357506040513d601f19601f82011682018060405250810190611c6091906126bc565b60015b611d0957611c6f61321f565b806308c379a01415611ccc5750611c84613668565b80611c8f5750611cce565b806040517f08c379a0000000000000000000000000000000000000000000000000000000008152600401611cc39190612bff565b60405180910390fd5b505b6040517f08c379a0000000000000000000000000000000000000000000000000000000008152600401611d0090612c21565b60405180910390fd5b63bc197c8160e01b7bffffffffffffffffffffffffffffffffffffffffffffffffffffffff1916817bffffffffffffffffffffffffffffffffffffffffffffffffffffffff191614611d90576040517f08c379a0000000000000000000000000000000000000000000000000000000008152600401611d8790612c61565b60405180910390fd5b505b505050505050565b600073ffffffffffffffffffffffffffffffffffffffff168373ffffffffffffffffffffffffffffffffffffffff161415611e0a576040517f08c379a0000000000000000000000000000000000000000000000000000000008152600401611e0190612d01565b60405180910390fd5b6000611e14611167565b90506000611e21846118f6565b90506000611e2e846118f6565b9050611e4e838760008585604051806020016040528060008152506119bc565b600080600087815260200190815260200160002060008873ffffffffffffffffffffffffffffffffffffffff1673ffffffffffffffffffffffffffffffffffffffff16815260200190815260200160002054905084811015611ee5576040517f08c379a0000000000000000000000000000000000000000000000000000000008152600401611edc90612ca1565b60405180910390fd5b84810360008088815260200190815260200160002060008973ffffffffffffffffffffffffffffffffffffffff1673ffffffffffffffffffffffffffffffffffffffff16815260200190815260200160002081905550600073ffffffffffffffffffffffffffffffffffffffff168773ffffffffffffffffffffffffffffffffffffffff168573ffffffffffffffffffffffffffffffffffffffff167fc3d58168c5ae7397731d063d5bbf3d657854427343f4c083240f7aacaa2d0f628989604051611fb2929190612dfc565b60405180910390a4611fd8848860008686604051806020016040528060008152506119c4565b50505050505050565b6000808273ffffffffffffffffffffffffffffffffffffffff163b119050919050565b828054612010906130e6565b90600052602060002090601f0160209004810192826120325760008555612079565b82601f1061204b57805160ff1916838001178555612079565b82800160010185558215612079579182015b8281111561207857825182559160200191906001019061205d565b5b50905061208691906120ca565b5090565b508054612096906130e6565b6000825580601f106120a857506120c7565b601f0160209004906000526020600020908101906120c691906120ca565b5b50565b5b808211156120e35760008160009055506001016120cb565b5090565b60006120fa6120f584612e4a565b612e25565b9050808382526020820190508285602086028201111561211957600080fd5b60005b85811015612149578161212f888261223b565b84526020840193506020830192505060018101905061211c565b5050509392505050565b600061216661216184612e76565b612e25565b9050808382526020820190508285602086028201111561218557600080fd5b60005b858110156121b5578161219b8882612381565b845260208401935060208301925050600181019050612188565b5050509392505050565b60006121d26121cd84612ea2565b612e25565b9050828152602081018484840111156121ea57600080fd5b6121f58482856130a4565b509392505050565b600061221061220b84612ed3565b612e25565b90508281526020810184848401111561222857600080fd5b6122338482856130a4565b509392505050565b60008135905061224a816136fe565b92915050565b600082601f83011261226157600080fd5b81356122718482602086016120e7565b91505092915050565b600082601f83011261228b57600080fd5b813561229b848260208601612153565b91505092915050565b6000813590506122b381613715565b92915050565b6000813590506122c88161372c565b92915050565b6000815190506122dd8161372c565b92915050565b60008083601f8401126122f557600080fd5b8235905067ffffffffffffffff81111561230e57600080fd5b60208301915083600182028301111561232657600080fd5b9250929050565b600082601f83011261233e57600080fd5b813561234e8482602086016121bf565b91505092915050565b600082601f83011261236857600080fd5b81356123788482602086016121fd565b91505092915050565b60008135905061239081613743565b92915050565b600080604083850312156123a957600080fd5b60006123b78582860161223b565b92505060206123c88582860161223b565b9150509250929050565b600080600080600060a086880312156123ea57600080fd5b60006123f88882890161223b565b95505060206124098882890161223b565b945050604086013567ffffffffffffffff81111561242657600080fd5b6124328882890161227a565b935050606086013567ffffffffffffffff81111561244f57600080fd5b61245b8882890161227a565b925050608086013567ffffffffffffffff81111561247857600080fd5b6124848882890161232d565b9150509295509295909350565b600080600080600060a086880312156124a957600080fd5b60006124b78882890161223b565b95505060206124c88882890161223b565b94505060406124d988828901612381565b93505060606124ea88828901612381565b925050608086013567ffffffffffffffff81111561250757600080fd5b6125138882890161232d565b9150509295509295909350565b6000806040838503121561253357600080fd5b60006125418582860161223b565b9250506020612552858286016122a4565b9150509250929050565b6000806040838503121561256f57600080fd5b600061257d8582860161223b565b925050602061258e85828601612381565b9150509250929050565b600080600080600060a086880312156125b057600080fd5b60006125be8882890161223b565b95505060206125cf88828901612381565b94505060406125e088828901612381565b93505060606125f188828901612381565b925050608086013567ffffffffffffffff81111561260e57600080fd5b61261a88828901612357565b9150509295509295909350565b6000806040838503121561263a57600080fd5b600083013567ffffffffffffffff81111561265457600080fd5b61266085828601612250565b925050602083013567ffffffffffffffff81111561267d57600080fd5b6126898582860161227a565b9150509250929050565b6000602082840312156126a557600080fd5b60006126b3848285016122b9565b91505092915050565b6000602082840312156126ce57600080fd5b60006126dc848285016122ce565b91505092915050565b600080602083850312156126f857600080fd5b600083013567ffffffffffffffff81111561271257600080fd5b61271e858286016122e3565b92509250509250929050565b60006020828403121561273c57600080fd5b600061274a84828501612381565b91505092915050565b600061275f8383612a66565b60208301905092915050565b61277481613030565b82525050565b600061278582612f14565b61278f8185612f42565b935061279a83612f04565b8060005b838110156127cb5781516127b28882612753565b97506127bd83612f35565b92505060018101905061279e565b5085935050505092915050565b6127e181613042565b82525050565b60006127f282612f1f565b6127fc8185612f53565b935061280c8185602086016130b3565b61281581613241565b840191505092915050565b600061282b82612f2a565b6128358185612f6f565b93506128458185602086016130b3565b61284e81613241565b840191505092915050565b6000612866603483612f6f565b91506128718261325f565b604082019050919050565b6000612889602f83612f6f565b9150612894826132ae565b604082019050919050565b60006128ac602883612f6f565b91506128b7826132fd565b604082019050919050565b60006128cf600b83612f6f565b91506128da8261334c565b602082019050919050565b60006128f2602483612f6f565b91506128fd82613375565b604082019050919050565b6000612915602a83612f6f565b9150612920826133c4565b604082019050919050565b6000612938602583612f6f565b915061294382613413565b604082019050919050565b600061295b602383612f6f565b915061296682613462565b604082019050919050565b600061297e602a83612f6f565b9150612989826134b1565b604082019050919050565b60006129a1600083612f64565b91506129ac82613500565b600082019050919050565b60006129c4602983612f6f565b91506129cf82613503565b604082019050919050565b60006129e7602983612f6f565b91506129f282613552565b604082019050919050565b6000612a0a602883612f6f565b9150612a15826135a1565b604082019050919050565b6000612a2d602183612f6f565b9150612a38826135f0565b604082019050919050565b6000612a50600f83612f6f565b9150612a5b8261363f565b602082019050919050565b612a6f8161309a565b82525050565b612a7e8161309a565b82525050565b6000612a8f82612994565b9150819050919050565b600060a082019050612aae600083018861276b565b612abb602083018761276b565b8181036040830152612acd818661277a565b90508181036060830152612ae1818561277a565b90508181036080830152612af581846127e7565b90509695505050505050565b600060a082019050612b16600083018861276b565b612b23602083018761276b565b612b306040830186612a75565b612b3d6060830185612a75565b8181036080830152612b4f81846127e7565b90509695505050505050565b60006020820190508181036000830152612b75818461277a565b905092915050565b60006040820190508181036000830152612b97818561277a565b90508181036020830152612bab818461277a565b90509392505050565b6000602082019050612bc960008301846127d8565b92915050565b6000604082019050612be460008301856127d8565b8181036020830152612bf681846127e7565b90509392505050565b60006020820190508181036000830152612c198184612820565b905092915050565b60006020820190508181036000830152612c3a81612859565b9050919050565b60006020820190508181036000830152612c5a8161287c565b9050919050565b60006020820190508181036000830152612c7a8161289f565b9050919050565b60006020820190508181036000830152612c9a816128c2565b9050919050565b60006020820190508181036000830152612cba816128e5565b9050919050565b60006020820190508181036000830152612cda81612908565b9050919050565b60006020820190508181036000830152612cfa8161292b565b9050919050565b60006020820190508181036000830152612d1a8161294e565b9050919050565b60006020820190508181036000830152612d3a81612971565b9050919050565b60006020820190508181036000830152612d5a816129b7565b9050919050565b60006020820190508181036000830152612d7a816129da565b9050919050565b60006020820190508181036000830152612d9a816129fd565b9050919050565b60006020820190508181036000830152612dba81612a20565b9050919050565b60006020820190508181036000830152612dda81612a43565b9050919050565b6000602082019050612df66000830184612a75565b92915050565b6000604082019050612e116000830185612a75565b612e1e6020830184612a75565b9392505050565b6000612e2f612e40565b9050612e3b8282613118565b919050565b6000604051905090565b600067ffffffffffffffff821115612e6557612e646131f0565b5b602082029050602081019050919050565b600067ffffffffffffffff821115612e9157612e906131f0565b5b602082029050602081019050919050565b600067ffffffffffffffff821115612ebd57612ebc6131f0565b5b612ec682613241565b9050602081019050919050565b600067ffffffffffffffff821115612eee57612eed6131f0565b5b612ef782613241565b9050602081019050919050565b6000819050602082019050919050565b600081519050919050565b600081519050919050565b600081519050919050565b6000602082019050919050565b600082825260208201905092915050565b600082825260208201905092915050565b600081905092915050565b600082825260208201905092915050565b6000612f8b8261309a565b9150612f968361309a565b9250827fffffffffffffffffffffffffffffffffffffffffffffffffffffffffffffffff03821115612fcb57612fca613192565b5b828201905092915050565b6000612fe18261309a565b9150612fec8361309a565b9250817fffffffffffffffffffffffffffffffffffffffffffffffffffffffffffffffff048311821515161561302557613024613192565b5b828202905092915050565b600061303b8261307a565b9050919050565b60008115159050919050565b60007fffffffff0000000000000000000000000000000000000000000000000000000082169050919050565b600073ffffffffffffffffffffffffffffffffffffffff82169050919050565b6000819050919050565b82818337600083830152505050565b60005b838110156130d15780820151818401526020810190506130b6565b838111156130e0576000848401525b50505050565b600060028204905060018216806130fe57607f821691505b60208210811415613112576131116131c1565b5b50919050565b61312182613241565b810181811067ffffffffffffffff821117156131405761313f6131f0565b5b80604052505050565b60006131548261309a565b91507fffffffffffffffffffffffffffffffffffffffffffffffffffffffffffffffff82141561318757613186613192565b5b600182019050919050565b7f4e487b7100000000000000000000000000000000000000000000000000000000600052601160045260246000fd5b7f4e487b7100000000000000000000000000000000000000000000000000000000600052602260045260246000fd5b7f4e487b7100000000000000000000000000000000000000000000000000000000600052604160045260246000fd5b600060033d111561323e5760046000803e61323b600051613252565b90505b90565b6000601f19601f8301169050919050565b60008160e01c9050919050565b7f455243313135353a207472616e7366657220746f206e6f6e204552433131353560008201527f526563656976657220696d706c656d656e746572000000000000000000000000602082015250565b7f455243313135353a2063616c6c6572206973206e6f7420746f6b656e206f776e60008201527f6572206e6f7220617070726f7665640000000000000000000000000000000000602082015250565b7f455243313135353a204552433131353552656365697665722072656a6563746560008201527f6420746f6b656e73000000000000000000000000000000000000000000000000602082015250565b7f43616c6c206661696c6564000000000000000000000000000000000000000000600082015250565b7f455243313135353a206275726e20616d6f756e7420657863656564732062616c60008201527f616e636500000000000000000000000000000000000000000000000000000000602082015250565b7f455243313135353a2061646472657373207a65726f206973206e6f742061207660008201527f616c6964206f776e657200000000000000000000000000000000000000000000602082015250565b7f455243313135353a207472616e7366657220746f20746865207a65726f20616460008201527f6472657373000000000000000000000000000000000000000000000000000000602082015250565b7f455243313135353a206275726e2066726f6d20746865207a65726f206164647260008201527f6573730000000000000000000000000000000000000000000000000000000000602082015250565b7f455243313135353a20696e73756666696369656e742062616c616e636520666f60008201527f72207472616e7366657200000000000000000000000000000000000000000000602082015250565b50565b7f455243313135353a2073657474696e6720617070726f76616c2073746174757360008201527f20666f722073656c660000000000000000000000000000000000000000000000602082015250565b7f455243313135353a206163636f756e747320616e6420696473206c656e67746860008201527f206d69736d617463680000000000000000000000000000000000000000000000602082015250565b7f455243313135353a2069647320616e6420616d6f756e7473206c656e6774682060008201527f6d69736d61746368000000000000000000000000000000000000000000000000602082015250565b7f455243313135353a206d696e7420746f20746865207a65726f2061646472657360008201527f7300000000000000000000000000000000000000000000000000000000000000602082015250565b7f4e6f7420417574686f72697a6564210000000000000000000000000000000000600082015250565b600060443d1015613678576136fb565b613680612e40565b60043d036004823e80513d602482011167ffffffffffffffff821117156136a85750506136fb565b808201805167ffffffffffffffff8111156136c657505050506136fb565b80602083010160043d0385018111156136e35750505050506136fb565b6136f282602001850186613118565b82955050505050505b90565b61370781613030565b811461371257600080fd5b50565b61371e81613042565b811461372957600080fd5b50565b6137358161304e565b811461374057600080fd5b50565b61374c8161309a565b811461375757600080fd5b5056fea26469706673582212208d18d43d67e248707c647f88fe992eaefc16ff4e56734ff59196ba3c9cb1c5c964736f6c63430008040033",
  "linkReferences": {},
  "deployedLinkReferences": {}
}